{
  "_format": "hh-sol-artifact-1",
  "contractName": "AskmeURI",
  "sourceName": "contracts/Askme.sol",
  "abi": [
    {
      "inputs": [
        {
          "internalType": "contract AskMe",
          "name": "_askmecontract",
          "type": "address"
        }
      ],
      "stateMutability": "nonpayable",
      "type": "constructor"
    },
    {
      "inputs": [
        {
          "internalType": "uint256",
          "name": "tokenId",
          "type": "uint256"
        }
      ],
      "name": "tokenURI",
      "outputs": [
        {
          "internalType": "string",
          "name": "",
          "type": "string"
        }
      ],
      "stateMutability": "view",
      "type": "function"
    }
  ],
  "bytecode": "0x60806040523480156200001157600080fd5b50604051620015e5380380620015e5833981810160405281019062000037919062000095565b806000806101000a81548173ffffffffffffffffffffffffffffffffffffffff021916908373ffffffffffffffffffffffffffffffffffffffff1602179055505062000123565b6000815190506200008f8162000109565b92915050565b600060208284031215620000a857600080fd5b6000620000b8848285016200007e565b91505092915050565b6000620000ce82620000e9565b9050919050565b6000620000e282620000c1565b9050919050565b600073ffffffffffffffffffffffffffffffffffffffff82169050919050565b6200011481620000d5565b81146200012057600080fd5b50565b6114b280620001336000396000f3fe608060405234801561001057600080fd5b506004361061002b5760003560e01c8063c87b56dd14610030575b600080fd5b61004a60048036038101906100459190610b23565b610060565b6040516100579190610df1565b60405180910390f35b606060008060009054906101000a900473ffffffffffffffffffffffffffffffffffffffff1673ffffffffffffffffffffffffffffffffffffffff16631e16f68b846040518263ffffffff1660e01b81526004016100be9190610e13565b60006040518083038186803b1580156100d657600080fd5b505afa1580156100ea573d6000803e3d6000fd5b505050506040513d6000823e3d601f19601f820116820180604052508101906101139190610ae2565b905060008060009054906101000a900473ffffffffffffffffffffffffffffffffffffffff1673ffffffffffffffffffffffffffffffffffffffff166306f70295856040518263ffffffff1660e01b81526004016101719190610e13565b60006040518083038186803b15801561018957600080fd5b505afa15801561019d573d6000803e3d6000fd5b505050506040513d6000823e3d601f19601f820116820180604052508101906101c69190610ae2565b905060008060009054906101000a900473ffffffffffffffffffffffffffffffffffffffff1673ffffffffffffffffffffffffffffffffffffffff1663ec81d19460008054906101000a900473ffffffffffffffffffffffffffffffffffffffff1673ffffffffffffffffffffffffffffffffffffffff16638baf3348886040518263ffffffff1660e01b81526004016102609190610e13565b60206040518083038186803b15801561027857600080fd5b505afa15801561028c573d6000803e3d6000fd5b505050506040513d601f19601f820116820180604052508101906102b09190610b4c565b6040518263ffffffff1660e01b81526004016102cc9190610e13565b60006040518083038186803b1580156102e457600080fd5b505afa1580156102f8573d6000803e3d6000fd5b505050506040513d6000823e3d601f19601f820116820180604052508101906103219190610ae2565b905061032b610a29565b6040518061018001604052806101488152602001611335610148913981600060058110610381577f4e487b7100000000000000000000000000000000000000000000000000000000600052603260045260246000fd5b60200201819052508360405160200161039a9190610d5d565b604051602081830303815290604052816001600581106103e3577f4e487b7100000000000000000000000000000000000000000000000000000000600052603260045260246000fd5b60200201819052506040518060600160405280602c81526020016112c9602c91398160026005811061043e577f4e487b7100000000000000000000000000000000000000000000000000000000600052603260045260246000fd5b60200201819052508183604051602001610459929190610d2e565b604051602081830303815290604052816003600581106104a2577f4e487b7100000000000000000000000000000000000000000000000000000000600052603260045260246000fd5b60200201819052506040518060400160405280601a81526020017f3c2f703e3c2f666f726569676e4f626a6563743e3c2f7376673e0000000000008152508160046005811061051a577f4e487b7100000000000000000000000000000000000000000000000000000000600052603260045260246000fd5b602002018190525060008160006005811061055e577f4e487b7100000000000000000000000000000000000000000000000000000000600052603260045260246000fd5b60200201518260016005811061059d577f4e487b7100000000000000000000000000000000000000000000000000000000600052603260045260246000fd5b6020020151836002600581106105dc577f4e487b7100000000000000000000000000000000000000000000000000000000600052603260045260246000fd5b60200201518460036005811061061b577f4e487b7100000000000000000000000000000000000000000000000000000000600052603260045260246000fd5b60200201518560046005811061065a577f4e487b7100000000000000000000000000000000000000000000000000000000600052603260045260246000fd5b6020020151604051602001610673959493929190610ce3565b604051602081830303815290604052905060006106c0610692896106f2565b61069b8461089f565b6040516020016106ac929190610d8a565b60405160208183030381529060405261089f565b9050806040516020016106d39190610dcf565b6040516020818303038152906040529150819650505050505050919050565b6060600082141561073a576040518060400160405280600181526020017f3000000000000000000000000000000000000000000000000000000000000000815250905061089a565b600082905060005b6000821461076c5780806107559061102e565b915050600a826107659190610f01565b9150610742565b60008167ffffffffffffffff8111156107ae577f4e487b7100000000000000000000000000000000000000000000000000000000600052604160045260246000fd5b6040519080825280601f01601f1916602001820160405280156107e05781602001600182028036833780820191505090505b5090505b60008514610893576001826107f99190610f8c565b9150600a856108089190611077565b60306108149190610eab565b60f81b818381518110610850577f4e487b7100000000000000000000000000000000000000000000000000000000600052603260045260246000fd5b60200101907effffffffffffffffffffffffffffffffffffffffffffffffffffffffffffff1916908160001a905350600a8561088c9190610f01565b94506107e4565b8093505050505b919050565b60606000825114156108c257604051806020016040528060008152509050610a24565b60006040518060600160405280604081526020016112f560409139905060006003600285516108f19190610eab565b6108fb9190610f01565b60046109079190610f32565b67ffffffffffffffff811115610946577f4e487b7100000000000000000000000000000000000000000000000000000000600052604160045260246000fd5b6040519080825280601f01601f1916602001820160405280156109785781602001600182028036833780820191505090505b509050600182016020820185865187015b808210156109e4576003820191508151603f8160121c168501518453600184019350603f81600c1c168501518453600184019350603f8160061c168501518453600184019350603f8116850151845360018401935050610989565b5050600386510660018114610a005760028114610a1357610a1b565b603d6001830353603d6002830353610a1b565b603d60018303535b50505080925050505b919050565b6040518060a001604052806005905b6060815260200190600190039081610a385790505090565b6000610a63610a5e84610e53565b610e2e565b905082815260208101848484011115610a7b57600080fd5b610a86848285610fca565b509392505050565b600082601f830112610a9f57600080fd5b8151610aaf848260208601610a50565b91505092915050565b600081359050610ac7816112b1565b92915050565b600081519050610adc816112b1565b92915050565b600060208284031215610af457600080fd5b600082015167ffffffffffffffff811115610b0e57600080fd5b610b1a84828501610a8e565b91505092915050565b600060208284031215610b3557600080fd5b6000610b4384828501610ab8565b91505092915050565b600060208284031215610b5e57600080fd5b6000610b6c84828501610acd565b91505092915050565b6000610b8082610e84565b610b8a8185610e8f565b9350610b9a818560208601610fca565b610ba381611135565b840191505092915050565b6000610bb982610e84565b610bc38185610ea0565b9350610bd3818560208601610fca565b80840191505092915050565b6000610bec600583610ea0565b9150610bf782611146565b600582019050919050565b6000610c0f601683610ea0565b9150610c1a8261116f565b601682019050919050565b6000610c32600183610ea0565b9150610c3d82611198565b600182019050919050565b6000610c55600283610ea0565b9150610c60826111c1565b600282019050919050565b6000610c78604a83610ea0565b9150610c83826111ea565b604a82019050919050565b6000610c9b601d83610ea0565b9150610ca68261125f565b601d82019050919050565b6000610cbe600283610ea0565b9150610cc982611288565b600282019050919050565b610cdd81610fc0565b82525050565b6000610cef8288610bae565b9150610cfb8287610bae565b9150610d078286610bae565b9150610d138285610bae565b9150610d1f8284610bae565b91508190509695505050505050565b6000610d3a8285610bae565b9150610d4582610cb1565b9150610d518284610bae565b91508190509392505050565b6000610d6882610bdf565b9150610d7382610c25565b9150610d7f8284610bae565b915081905092915050565b6000610d9582610c02565b9150610da18285610bae565b9150610dac82610c6b565b9150610db88284610bae565b9150610dc382610c48565b91508190509392505050565b6000610dda82610c8e565b9150610de68284610bae565b915081905092915050565b60006020820190508181036000830152610e0b8184610b75565b905092915050565b6000602082019050610e286000830184610cd4565b92915050565b6000610e38610e49565b9050610e448282610ffd565b919050565b6000604051905090565b600067ffffffffffffffff821115610e6e57610e6d611106565b5b610e7782611135565b9050602081019050919050565b600081519050919050565b600082825260208201905092915050565b600081905092915050565b6000610eb682610fc0565b9150610ec183610fc0565b9250827fffffffffffffffffffffffffffffffffffffffffffffffffffffffffffffffff03821115610ef657610ef56110a8565b5b828201905092915050565b6000610f0c82610fc0565b9150610f1783610fc0565b925082610f2757610f266110d7565b5b828204905092915050565b6000610f3d82610fc0565b9150610f4883610fc0565b9250817fffffffffffffffffffffffffffffffffffffffffffffffffffffffffffffffff0483118215151615610f8157610f806110a8565b5b828202905092915050565b6000610f9782610fc0565b9150610fa283610fc0565b925082821015610fb557610fb46110a8565b5b828203905092915050565b6000819050919050565b60005b83811015610fe8578082015181840152602081019050610fcd565b83811115610ff7576000848401525b50505050565b61100682611135565b810181811067ffffffffffffffff8211171561102557611024611106565b5b80604052505050565b600061103982610fc0565b91507fffffffffffffffffffffffffffffffffffffffffffffffffffffffffffffffff82141561106c5761106b6110a8565b5b600182019050919050565b600061108282610fc0565b915061108d83610fc0565b92508261109d5761109c6110d7565b5b828206905092915050565b7f4e487b7100000000000000000000000000000000000000000000000000000000600052601160045260246000fd5b7f4e487b7100000000000000000000000000000000000000000000000000000000600052601260045260246000fd5b7f4e487b7100000000000000000000000000000000000000000000000000000000600052604160045260246000fd5b6000601f19601f8301169050919050565b7f416e6f6e3a000000000000000000000000000000000000000000000000000000600082015250565b7f7b226e616d65223a2022437572696f7573417065202300000000000000000000600082015250565b7f2000000000000000000000000000000000000000000000000000000000000000600082015250565b7f227d000000000000000000000000000000000000000000000000000000000000600082015250565b7f222c20226465736372697074696f6e223a202241736b206d6520616e7974686960008201527f6e672e222c2022696d616765223a2022646174613a696d6167652f7376672b7860208201527f6d6c3b6261736536342c00000000000000000000000000000000000000000000604082015250565b7f646174613a6170706c69636174696f6e2f6a736f6e3b6261736536342c000000600082015250565b7f3a20000000000000000000000000000000000000000000000000000000000000600082015250565b6112ba81610fc0565b81146112c557600080fd5b5056fe3c2f703e3c7020786d6c6e733d22687474703a2f2f7777772e77332e6f72672f313939392f7868746d6c223e4142434445464748494a4b4c4d4e4f505152535455565758595a6162636465666768696a6b6c6d6e6f707172737475767778797a303132333435363738392b2f3c73766720786d6c6e733d22687474703a2f2f7777772e77332e6f72672f323030302f73766722207072657365727665417370656374526174696f3d22784d696e594d696e206d656574222076696577426f783d223020302033353020333530223e3c7374796c653e2e62617365207b2066696c6c3a2077686974653b20666f6e742d66616d696c793a2073657269663b20666f6e742d73697a653a20313470783b207d3c2f7374796c653e3c726563742077696474683d223130302522206865696768743d2231303025222066696c6c3d226f72616e676522202f3e3c666f726569676e4f626a65637420783d2231302220793d223130222077696474683d2233343022206865696768743d223334302220636c6173733d2262617365223e3c7020786d6c6e733d22687474703a2f2f7777772e77332e6f72672f313939392f7868746d6c223ea264697066735822122032e71b218b668ff1c47d13a4b96ef44a5930da47368c8d0fa306e83be141ace164736f6c63430008040033",
  "linkReferences": {},
  "deployedLinkReferences": {}
}